{
  "contractName": "HelloWorld",
  "abi": [
    {
      "anonymous": false,
      "inputs": [
        {
          "indexed": false,
          "internalType": "string",
          "name": "newName",
          "type": "string"
        },
        {
          "indexed": false,
          "internalType": "address",
          "name": "updater",
          "type": "address"
        }
      ],
      "name": "NameUpdated",
      "type": "event"
    },
    {
      "constant": true,
      "inputs": [],
      "name": "getName",
      "outputs": [
        {
          "internalType": "string",
          "name": "",
          "type": "string"
        }
      ],
      "payable": false,
      "stateMutability": "view",
      "type": "function"
    },
    {
      "constant": false,
      "inputs": [
        {
          "internalType": "string",
          "name": "newName",
          "type": "string"
        }
      ],
      "name": "setName",
      "outputs": [],
      "payable": false,
      "stateMutability": "nonpayable",
      "type": "function"
    }
  ],
  "bytecode": "0x608060405234801561001057600080fd5b50610360806100206000396000f3fe608060405234801561001057600080fd5b50600436106100365760003560e01c806317d7de7c1461003b578063c47f0027146100be575b600080fd5b610043610137565b6040518080602001828103825283818151815260200191508051906020019080838360005b83811015610083578082015181840152602081019050610068565b50505050905090810190601f1680156100b05780820380516001836020036101000a031916815260200191505b509250505060405180910390f35b610135600480360360208110156100d457600080fd5b81019080803590602001906401000000008111156100f157600080fd5b82018360208201111561010357600080fd5b8035906020019184600183028401116401000000008311171561012557600080fd5b90919293919293905050506101d9565b005b606060008054600181600116156101000203166002900480601f0160208091040260200160405190810160405280929190818152602001828054600181600116156101000203166002900480156101cf5780601f106101a4576101008083540402835291602001916101cf565b820191906000526020600020905b8154815290600101906020018083116101b257829003601f168201915b5050505050905090565b7f20e318a79d6993b8f81a843a23667dc1d069920c1f36e62a36d3979a129469d282823360405180806020018373ffffffffffffffffffffffffffffffffffffffff1673ffffffffffffffffffffffffffffffffffffffff1681526020018281038252858582818152602001925080828437600081840152601f19601f82011690508083019250505094505050505060405180910390a1818160009190610281929190610286565b505050565b828054600181600116156101000203166002900490600052602060002090601f016020900481019282601f106102c757803560ff19168380011785556102f5565b828001600101855582156102f5579182015b828111156102f45782358255916020019190600101906102d9565b5b5090506103029190610306565b5090565b61032891905b8082111561032457600081600090555060010161030c565b5090565b9056fea265627a7a72315820bc57e5641a9e31517c3b6356361594cd315fb040c26a10eefcf1b10432a4e08e64736f6c63430005100032",
  "source": "// SPDX-License-Identifier: MIT\r\npragma solidity >=0.4.22 <0.9.0;\r\n\r\n// Declare a contract called HelloWorld\r\ncontract HelloWorld {\r\n    event NameUpdated(string newName, address updater);\r\n\r\n    // Define a string called name\r\n    string name;\r\n\r\n    // Declares a function called getName\r\n    // The 'public' label means the function can be called internally, by transactions or other contracts\r\n    // The 'view' label indicates that the function does not change the state of the contract\r\n    // The function returns a string, from the memory data location\r\n    function getName() public view returns (string memory) {\r\n        // Return the storage variable 'name'\r\n        return name;\r\n    }\r\n\r\n    // Declare a function called setName\r\n    // The function takes 1 parameter, a string, called newName, with the calldata data location in the Ethereum Virtual Machine\r\n    // The 'external' label means the function can only be called from an external source\r\n    function setName(string calldata newName) external {\r\n        emit NameUpdated(newName, msg.sender);\r\n        // Set the storage variable, name, to the value passed in as newName\r\n        name = newName;\r\n    }\r\n}\r\n",
  "sourcePath": "D:\\Solidity\\d5d\\contracts\\HelloWorld.sol",
  "compiler": {
    "name": "solc",
    "version": "0.5.16+commit.9c3226ce.Emscripten.clang"
  },
  "schemaVersion": "3.4.3",
  "updatedAt": "2022-02-19T10:24:36.758Z",
  "networkType": "ethereum",
  "devdoc": {
    "methods": {}
  },
  "userdoc": {
    "methods": {}
  }
}